:020000040800F2
:1000000000000220B50400080505000805050008E9
:1000100005050008050500080505000800000000AA
:1000200000000000000000000000000005050008BE
:10003000050500080000000005050008050500088A
:100040000505000805050008050500080505000868
:100050000505000805050008050500080505000858
:100060000505000805050008050500080505000848
:100070000505000805050008050500080505000838
:100080000505000805050008050500080505000828
:100090000505000805050008050500080505000818
:1000A0000505000805050008050500080505000808
:1000B00005050008050500080505000805050008F8
:1000C00005050008050500080505000805050008E8
:1000D00005050008050500080505000805050008D8
:1000E00005050008050500080505000805050008C8
:1000F00005050008050500080505000805050008B8
:1001000005050008050500080505000805050008A7
:100110000505000805050008050500080505000897
:100120000505000805050008050500080505000887
:100130000505000805050008050500080505000877
:100140000505000805050008050500080505000867
:100150000505000805050008050500080505000857
:100160000505000805050008050500080505000847
:100170000505000805050008050500080000000049
:08018000050500080505000853
:100188000348044B834202D0034B03B1184770471E
:100198000400002004000020000000000548064973
:1001A8000B1AD90F01EBA301491002D0034B03B17D
:1001B80018477047040000200400002000000000D9
:1001C80010B5064C237843B9FFF7DAFF044B13B197
:1001D8000448AFF300800123237010BD0400002001
:1001E800000000000805000808B5044B1BB10449CD
:1001F8000448AFF30080BDE80840CFE700000000E6
:10020800080000200805000880B500AF00F010F8CD
:1002180000F05CF8044B5B69034A83F400535361B4
:10022800024800F087F8F5E70010024040420F004E
:1002380080B400AF224B1B68214A43F4803313601B
:1002480000BF1F4B1B6803F40033002BF9D01C4B75
:100258001C4A5A601A4B1B68194A43F08073136092
:1002680000BF174B1B6803F00073002BF9D0164B27
:100278001B68154A43F4E06343F005031360104B11
:100288009B680F4A43F00203936000BF0C4B9B68C6
:1002980003F00803002BF9D0094B094A9B689360C7
:1002A800074B9B68064A43F4A0539360044B9B6832
:1002B800034A43F40043936000BFBD4680BC7047C7
:1002C8000038024019544007003C024080B400AF97
:1002D800164B1B6B154A43F010031363144B1B6832
:1002E800134A23F040631360114B1B68104A43F014
:1002F800806313600E4B9B680D4A23F04063936044
:100308000B4B9B680A4A43F040639360084BDB68D9
:10031800074A23F04063D360054B5B69044A23F422
:100328000053536100BFBD4680BC7047003802408F
:100338000010024080B483B000AF786000E000BFD6
:100348007B685A1E7A60002BF9D100BF00BF0C37BA
:10035800BD4680BC704700BF80B400AF00BFBD463B
:1003680080BC704780B487B000AF00233B61002396
:100378007B610223FB600023BB6002237B60344B5C
:100388009B6803F00C033B613B69082B11D03B6968
:10039800082B44D83B69002B03D03B69042B04D0BD
:1003A8003DE02C4B2C4A1A603DE02A4B2B4A1A6040
:1003B80039E0274B5B689B0D03F00103BB60244BBE
:1003C8005B6803F03F037B60BB68002B0CD0234ABB
:1003D8007B68B2FBF3F31E4A52689209C2F3080223
:1003E80002FB03F37B610BE01B4A7B68B2FBF3F370
:1003F800174A52689209C2F3080202FB03F37B61B1
:10040800134B5B681B0C03F0030301335B00FB60B9
:100418007A69FB68B2FBF3F30E4A136003E00D4BF5
:100428000D4A1A6000BF0A4B9B681B0903F00F03B3
:100438000B4AD35C3B61074B1A683B6922FA03F30A
:10044800044A136000BF1C37BD4680BC704700BF1C
:1004580000380240000000200024F40040787D01AC
:100468002005000870B50D4E0D4D761BB61006D050
:10047800002455F8043B01349847A642F9D1094EA7
:10048800094D761B00F03CF8B61006D0002455F84C
:10049800043B01349847A642F9D170BD38050008DD
:1004A800380500083C05000838050008DFF834D096
:1004B800FFF752FF0C480D490D4A002302E0D458BB
:1004C800C4500433C4188C42F9D30A4A0A4C002396
:1004D80001E013600432A242FBD3FFF7C3FFFFF72A
:1004E80093FE704700000220000000200400002056
:1004F800400500080400002020000020FEE700005E
:10050800F8B500BFF8BC08BC9E467047F8B500BFF8
:08051800F8BC08BC9E467047C8
:1005200000000000000000000102030406070809A3
:080530000000000001020304B9
:04053800F1010008C5
:04053C00C9010008E9
:040540000024F4009F
:04000005080004B536
:00000001FF
